:020000040800F2
:10000000A812002099010008AB1C00086D1A000816
:10001000A91C000859030008C522000800000000C0
:1000200000000000000000000000000001010008C6
:100030002D0400080000000045010008751E00089E
:10004000B3010008B3010008B3010008B3010008C0
:10005000B3010008B3010008B3010008B3010008B0
:10006000B3010008B3010008B301000885030008CC
:10007000B3010008B3010008B3010008B301000890
:10008000B3010008B3010008B3010008B301000880
:10009000B3010008B3010008B3010008B301000870
:1000A000B3010008B3010008B3010008B301000860
:1000B000B3010008B3010008451F0008B3010008A0
:1000C000B3010008B3010008B3010008B301000840
:1000D000B3010008B9220008B3010008B301000809
:1000E000B3010008B3010008B3010008DFF80CD029
:1000F00000F088F80048004731240008A8120020CA
:10010000224B19680868B0E8F00F80F30988BFF344
:100110006F8F4FF0000080F311884EF00D0E704786
:100120000000000006480068006880F3088862B696
:1001300061B6BFF34F8FBFF36F8F00DF00BF00BF0B
:1001400008ED00E0EFF30980BFF36F8F0F4B1A68E3
:1001500020E9F00F106008B54FF0500080F31188CF
:10016000BFF34F8FBFF36F8F02F022FF4FF00000FD
:1001700080F31188BDE8084019680868B0E8F00FFE
:1001800080F30988BFF36F8F704700BF38000020ED
:10019000EFF3058070470000064880470648004797
:1001A000FEE7FEE7FEE7FEE7FEE7FEE7FEE7FEE727
:1001B000FEE7FEE7FD1E0008ED00000840EA01032F
:1001C0009B0703D009E008C9121F08C0042AFAD20D
:1001D00003E011F8013B00F8013B521EF9D27047D1
:1001E000D2B201E000F8012B491EFBD27047002279
:1001F000F6E710B513460A4604461946FFF7F0FF26
:10020000204610BD064C074D06E0E06840F00103B3
:1002100094E8070098471034AC42F6D3FFF76AFF22
:10022000443900086439000870B5044600688168E4
:10023000C943C9071CD1816821F00101816000F028
:100240006BFD05460FE000BF00F066FD401B022875
:1002500009D9A06A40F01000A062E06A40F00100F5
:10026000E062012070BD20688068C043C007EBD009
:10027000002070BD10B50146406A826A12F0500F2E
:1002800005D0006A026BBDE8104008461047816A3D
:1002900041F40071816201688968C1F34241072914
:1002A0000CD1C16851B9816A21F480718162816A7F
:1002B000C90403D4816A41F00101816200F036F97A
:1002C00010BD10B5406A816A41F040018162C16A87
:1002D00041F00401C16200F02BF910BD10B5406A75
:1002E00000F025F910BD0000F8B500260446009680
:1002F00000688168C943C90728D0816841F00101BD
:100300008160134813490068B0FBF1F000E0401E23
:1003100000900028FBD100F0FFFC054611E000BF73
:1003200000F0FAFC401B02280BD9A06A40F0100034
:10033000A062E06A40F00100E06284F824600120DD
:10034000F8BD20688068C043C007E9D10020F8BD2F
:100350003400002040420F00FEE7000010B502F01C
:1003600063FC00224FF48041054800F0D0FC44F2C9
:10037000506000F045F8BDE8104002F045BC0000B8
:10038000000C0140014800F0B9BA00003001002023
:1003900030B590F840500124AC40C56B6C600468E7
:1003A00063604368102B036803D099600068C260E3
:1003B00030BD9A600068C16030BD00000E48016821
:1003C00021F080710160016841F0807101600B488B
:1003D000016821F001010160016841F00101016043
:1003E0000021416000BF00BF00BF406808B100208D
:1003F0007047012070470000FCED00E0001000E0B5
:1004000031B5084D6C6800F08FFE0749B0FBF1F084
:1004100000994843009068680099001B8842FAD30D
:1004200038BD0000001000E040420F0070477047E8
:10043000F8B50024009490F824202546012A12D013
:10044000012280F824204A681F23072A0DD206685B
:10045000776B521E02EB820293409F430B689340DE
:100460001F43776319E00220F8BD06680D2A0AD2FF
:10047000376BD21F02EB820293409F430B6893407D
:100480001F43376309E0F76A0D3A02EB820293409B
:100490009F430B6893401F43F7620A68072306686F
:1004A0000A2A0AD3F7680A3A02EB420293409F43B2
:1004B0008B6893401F43F76008E0376902EB420204
:1004C00093409F438B6893401F4337610A68102A0B
:1004D00001D0112A20D1124B02689A4217D1936899
:1004E0001B0219D4936843F4000393600968102930
:1004F00012D10C490C4A0968B1FBF2F101EB810100
:10050000490000E0491E00910029FBD104E0816A06
:1005100041F020018162012480F824502046F8BD7A
:10052000002401403400002040420F007047704713
:10053000704700002DE9F0414FF0000704003D46F0
:100540007ED0A06A002628B9E66284F8246020469E
:1005500000F07EF82046FFF767FEA16A01F0100167
:10056000014304D0A06A40F01000A06268E0A16AD4
:1005700021F4885141F00201A1626268E169E368F7
:100580000A4347EA43010A43A1684FF48077B9421E
:1005900008D0012906D00021D4F814C0BCF1010F05
:1005A00002D00AE03946F7E7F3B1A36A43F020032B
:1005B000A362E36A43F00103E3622368D3F804C053
:1005C0002CF4694C4CEA010CC3F804C02368996808
:1005D000DFF870C001EA0C0111439960A168B942CB
:1005E0000BD0012909D00CE0DFF85CC0A3690CEB4B
:1005F00043330B4343F40061DFE7218A0D05A5F582
:1006000080152168CB6A23F470032B43CB622168E9
:1006100089680E4B1940914208D1E662A16A21F027
:10062000020141F00101A162BDE8F081A06A20F061
:10063000020040F01000A062E06A40F00100E062B9
:100640000120F1E7FDF7E1FF00E0FFFFFE0E1FFFD5
:10065000F0B585B0002506460095019502950395F5
:100660000068194988422CD11849886940F4007003
:100670008861886900F400700490886940F0040083
:1006800088618869802700F0040004900320CDE988
:10069000007069460E4800F053FA0F4C0D48C4E94B
:1006A00000058015A560C4E903708000C4E9050554
:1006B0002046E56100F0CCF908B1FFF7B8FE3462DE
:1006C000666205B0F0BD0000002401400010024049
:1006D0000008014008000240300100202DE9F047E9
:1006E000894604463B4900683B4F0E1D90468842B0
:1006F00001D0B84207D1306810F4702F03D0012523
:100700002846BDE8F08794F8240001280CD0012089
:1007100084F824002046FFF7E7FD05004FF00000B5
:1007200004D084F82400EBE70220EAE7A16A40F64F
:100730000162914341F48071A1622168B94218D1EC
:10074000326812F4702F14D0A16A41F48011A162B2
:100750003168490505D5A16A21F4005141F4805161
:10076000A162A16AC9040AD5E16A21F00601E16229
:1007700006E0A26A22F48012A2624968E9E7E06218
:1007800084F82400216A15488862216A1448C862E6
:10079000216A1448086321686FF00200086020682D
:1007A000816841F480718160216843464A464C313A
:1007B000206A00F07BF920688168C1F34241072973
:1007C000816803D041F48011816099E741F4A00170
:1007D000FAE70000002401400028014075020008EB
:1007E000DD020008C302000810B5044690F824009A
:1007F000012807D0012084F824002046FFF714FDCB
:1008000010B10EE0022010BD2068816821F48071D3
:100810008160206A00F00EF8A16A30B141F0400119
:10082000A162002184F8241010BD21F4885141F008
:100830000101F5E701680A6822F00E020A6001680A
:100840000A6822F001020A6090F84020C36B01217F
:1008500001FA02F25A6080F82110002180F820107D
:100860000846704710B590F821100024022903D0E3
:100870000421816301243DE001680A6822F00E0230
:100880000A6001680A6822F001020A601A4A0168D7
:10089000914201D1012121E0174A1432914201D144
:1008A00010211BE0144A2832914201D1891515E02C
:1008B000114A3C32914201D189140FE00E4A503264
:1008C000914202D14FF4803108E00B4A64329142E8
:1008D00002D14FF4801101E04FF08071064A083ACE
:1008E0005160012180F82110002180F82010416B17
:1008F00001B18847204610BD080002402DE9F05F95
:10090000C16B0C6801680B68D0F840C0042202FA81
:100910000CF2494DDFF824A1494E4A4FDFF828B1C7
:10092000DFF828E122422CD05A072AD50A6892061D
:1009300003D40A6822F004020A600168A94201D1C6
:10094000042219E0514501D1402215E0B14202D103
:100950004FF4806210E0B94202D14FF480420BE0C4
:10096000594502D14FF4802206E0714502D14FF47F
:10097000800201E04FF080622F4908394A60C16A65
:100980003BE04FF0020808FA0CF818EA040F4FF0A9
:1009900000094FF0010235D05FEA837832D50B6849
:1009A0009B0605D40B6823F00A030B6080F8212016
:1009B0000168A94201D1022219E0514501D120224A
:1009C00015E0B14202D14FF4007210E0B94202D1F9
:1009D0004FF400520BE0594502D14FF4003206E0CB
:1009E000714502D14FF4001201E04FF0007212493C
:1009F00008394A6080F82090816A00291AD0BDE841
:100A0000F05F0847082505FA0CF5254212D01B07B0
:100A100010D50B6823F00E030B6090F84010C36BE9
:100A200002FA01F15960826380F8212080F8209059
:100A3000016BE2E7BDE8F09F080002401C000240A5
:100A40003000024044000240580002406C00024066
:100A500030B528B308C8134914221944B1FBF2F188
:100A60008900C16310498163022141771A6843F606
:100A7000F0718A43D0E900142143D0E902452C43A8
:100A8000214304692143446921438469214311437B
:100A9000196000214163012242770177084630BD89
:100AA000012030BDF8FFFDBF0000024070B50446D4
:100AB00090F82000002501280CD0012084F82000A7
:100AC00094F821600020012E06D084F82000022531
:100AD000284670BD022070BD022684F82160A06304
:100AE0002068066826F0010606602046FFF750FCE5
:100AF000E06A00282068016802D041F00E0106E09B
:100B000021F0040101602068016841F00A010160E0
:100B10002068016841F001010160D9E770B5044621
:100B200000F0FAF80546601C02D00448007804443E
:100B300000F0F2F8401BA042FAD370BD280000205C
:100B40002DE9F84FDFF890A100220AF1040B1446BA
:100B500001274FF00F090BF1040E00BF0B6807FAD5
:100B600004F52B40AB4274D1DFF870C14E68A6EBA0
:100B70000C0866452BD00DDC032E34D005DC36B3D3
:100B8000012E19D0022E2FD11BE0112E16D0122EBD
:100B90002AD119E0B8F5881F19D006DCB8F5803FD6
:100BA00015D0B8F5801F1FD111E0B8F5001F0ED089
:100BB000B8F5041F18D10AE0CA6815E0CA68121D0A
:100BC00012E0CA6808320FE0CA680C320CE08A688A
:100BD0002AB1012A4FF0080203D0456104E0042243
:100BE00002E0056100E00022FF2B01D8064601E08B
:100BF00000F104064FEA840501D9A5F12005D6F8D5
:100C000000C009FA05F82CEA080C02FA05F54CEACE
:100C1000050CC6F800C04D68ED0057D5304DAE69E3
:100C200046F00106AE61AD6924F0030605F001054A
:100C300000952C4D06EB050CDCF80850A6074FEA92
:100C4000167809FA08F6B543274EB04202D10026BD
:100C500010E03BE0254EB04201D101260AE0244ECF
:100C6000B04201D1022605E0224EB04201D1032656
:100C700000E0042606FA08F62E43CCF808604D681A
:100C8000DAF80060ED03554601D51E4300E09E43AF
:100C90002E604D68DBF80060AD035D4601D51E4354
:100CA00000E09E432E604D68DEF80060ED02754660
:100CB00001D51E4300E09E432E604D68AD020E4DEF
:100CC0002E6801D51E4300E09E432E60641C102C4C
:100CD000FFF444AFBDE8F88F00040140000011109C
:100CE000001002400000014000080140000C0140DB
:100CF00000100140001401400C04014080680840CD
:100D000000D001207047C2684A40C26070470AB1F3
:100D1000016170470904FBE70148806870470000E3
:100D200028000020024881680278114481607047E1
:100D300028000020074810B5016841F0100101604B
:100D4000032000F093F8002000F006F800F03EF8D1
:100D5000002010BD0020024000B5014687B00022EF
:100D60001E2000F063F81E2000F054F81348C169FB
:100D700041F00401C161C06905A900F004000690BA
:100D8000684600F0B1F900F0D5F90D494000B0FB1C
:100D9000F1F10D480B4A491E0260416040F2E73212
:100DA0000021C0E90321816000F09EFB10B1012009
:100DB00007B000BD044800F0B3FBF9E700100240A3
:100DC00040420F0000080040740100200F4808B5A1
:100DD000816941F001018161816901F001010091A6
:100DE000C16941F08051C161C069002200F08050AA
:100DF00000900F21901E00F019F80548416821F07D
:100E0000E06141F00071416008BD00000010024047
:100E10000000014000F01F020121914040098000C4
:100E200000F1E020C0F8001170470000F0B40E4B54
:100E30001B680C46C3F30223C3F10705042D00D938
:100E40000425191D072901D2002300E0DB1E01261D
:100E500006FA05F1491E214099409E40761E164033
:100E60003143F0BC00F022BF0CED00E0064900F079
:100E7000070208684FF6FF03184040EA0220034AC1
:100E800010430860704700000CED00E00000FA0518
:100E90002DE9F84305460078354CC00754D0E06989
:100EA0000026C00008D4E06940F08050E061E069AD
:100EB000012600F0805000902E480168C90512D428
:100EC0000168804641F480710160FFF725FF074605
:100ED00005E000BFFFF720FFC01B642823D8D8F827
:100EE0000000C005F6D5206A10F4407021D0A98812
:100EF00001F4407181421CD0206A1F49012220F474
:100F000040700A6000220A602062C00711D0FFF71B
:100F100003FF074641F2883808E000BFFFF7FCFEF8
:100F2000C11B414502D90320BDE8F883206A800730
:100F3000F4D5206A696820F44070084320621EB12D
:100F4000E06920F08050E0612878800705D560686E
:100F5000A96820F44040084360602878C00605D5A1
:100F60006068E96820F48000084360600020DBE7E7
:100F70000010024000700040400442422DE9F0475A
:100F8000DFF8548105460E46D8F8000000F007004F
:100F9000B0420CD2D8F8001021F007013143C8F854
:100FA0000010D8F8000000F00700B0426FD12868A8
:100FB0004A4C810712D5400703D5606840F4E060D1
:100FC00060602878000703D5606840F46050606076
:100FD0006068A96820F0F000084360602878C007C6
:100FE00044D06868012816D02168022816D08907E5
:100FF00000294CDA616821F0030101436160FFF7C9
:101000008BFE6968074641F2883001290ED002291B
:10101000814618D026E021688903E9E78901E7E7DE
:10102000FFF77AFEC11B494501D918E08146606887
:10103000C0F381000128F3D118E000BFFFF76CFE78
:10104000C11B49450BD86068C0F381000228F5D167
:101050000CE000BFFFF760FEC11B494502D9032029
:10106000BDE8F087606810F00C0FF3D1D8F80010DD
:10107000404601F00701B1420BD9016821F0070198
:1010800031430160006800F00700B04201D0012048
:10109000E6E72878400705D56068E96820F4E06055
:1010A000084360602878000706D56068296920F445
:1010B000605040EAC100606000F05CF86168084A76
:1010C000C1F30311515CC840064908600020FFF7D6
:1010D00043FE0020C4E70000002002400010024050
:1010E00008390008340000200F2202600C4A5368BF
:1010F00003F003034360536803F0F0038360536815
:1011000003F4E063C36052684FF4E06303EAD20281
:1011100002610448006800F00700086070470000A2
:1011200000100240002002400148006870470000A3
:10113000340000200448054900684968044AC1F3A6
:101140000221515CC840704734000020001002406A
:10115000183900080448054900684968044AC1F381
:10116000C221515CC840704734000020001002408A
:101170001839000812A185B00FC98DE80F0014A01E
:10118000144A006804905168134801F00C03042BC2
:1011900010D0082B0ED1C1F38343C9031DF80300FF
:1011A0000AD5516804AAC1F34041515C0A4A504330
:1011B000B0FBF1F005B0704708494843FAE700007A
:1011C00002030405060708090A0B0C0D0E0F101088
:1011D000010200000010024000127A0000093D00E8
:1011E0002DE9F84F04460078B94DC00748D068682B
:1011F000C0F38100012807D06868C0F3810002288D
:1012000009D16868C00306D52868800338D56068AE
:1012100000286FD034E06068B0F5803F0BD010B18B
:10122000B0F5A02F11D0286820F4803028602868FD
:1012300020F4802002E0286840F480302860606854
:1012400088B1FFF769FD064609E0286840F4802070
:101250002860F0E7FFF760FD801B642875D82868D8
:101260008003F7D50CE0FFF757FD064605E000BF09
:10127000FFF752FD801B6428F0D828688003F7D45C
:101280002078944E80074FF001094FF000083BD5BD
:10129000686810F00C0F07D06868C0F3810002285E
:1012A00009D16868C00306D42868800714D520696E
:1012B00001281FD110E02069B0B1C6F80090FFF7F7
:1012C0002BFD074605E000BFFFF726FDC01B0228E7
:1012D000C4D828688007F7D52868616920F0F8002D
:1012E00040EAC10028600FE0C6F80080FFF714FD57
:1012F000074606E0E9E000BFFFF70EFDC01B02282D
:1013000023D828688007F7D4207800072CD57248A6
:10131000A169D9B1C0F80090FFF7FEFC074604E0D0
:10132000FFF7FAFCC01B02280FD8686A8007F7D5C0
:101330006A484FF4FA510068B0FBF1F0009000BF2A
:101340000098411E0091FAD20EE080E0C0F80080C3
:10135000FFF7E2FC074604E0FFF7DEFCC01B0228B3
:1013600075D8686A8007F7D42078400760D5E869A7
:101370000027C00008D4E86940F08050E861E869BF
:10138000012700F08050009055480168C90513D42A
:101390000168834641F480710160FFF7BDFC82461D
:1013A00006E000BFFFF7B8FCA0EB0A0064284ED8A7
:1013B000DBF80000C005F5D5E06801280AD008B1C7
:1013C000052813D0286A20F001002862286A20F03E
:1013D000040002E0286A40F001002862E06841F25F
:1013E000883B98B1FFF798FC82460BE0286A40F0F2
:1013F00004002862EEE700BFFFF78EFCA0EB0A01B5
:1014000059455AD8286A8007F6D50CE0FFF784FCC6
:10141000824605E0FFF780FCA0EB0A0159454CD855
:10142000286A8007F6D41FB1E86920F08050E8618F
:10143000E06988B36968C1F38101022945D00228B7
:10144000C6F8608004D0FFF767FC044638E034E05B
:10145000FFF762FC074604E0FFF75EFCC01B0228B2
:101460002BD828688001F7D4206AB0F5803F05D1D9
:101470006868A16820F4003008436860D4E9080176
:101480000843696821F4741108436860C6F86090E5
:10149000FFF742FC044606E015E000BFFFF73CFC06
:1014A000001B022809D828688001F7D50BE000BF8F
:1014B000FFF732FC001B022802D90320BDE8F88F99
:1014C00028688001F4D40020F8E70120F6E7000046
:1014D00000100240000042428004424234000020DA
:1014E000007000407047704710B5040003D094F8B6
:1014F0003D0010B107E0012010BD002084F83C0041
:10150000204600F00CF8022084F83D00211D2068E0
:1015100000F01EFD012084F83D00002010BD704742
:101520000168CA6842F00102CA600068016841F0BF
:101530000101016000207047704770B504460068E3
:1015400001694FF00005C943890715D4C168C94333
:10155000890711D4E91E0161012020772068806984
:101560008007204602D0FFF7E7FF04E000F098F87C
:10157000204600F096F8257720680169C94349079D
:1015800017D4C168C943490713D46FF0040101613E
:10159000022020772068806910F4407F204602D026
:1015A000FFF7CAFF04E000F07BF8204600F079F86E
:1015B000257720680169C943090716D4C168C94362
:1015C000090712D46FF00801016104202077206818
:1015D000C0698007204602D0FFF7AEFF04E000F0AC
:1015E0005FF8204600F05DF8257720680169C9435F
:1015F000C90617D4C168C943C90613D46FF01001D6
:101600000161082020772068C06910F4407F2046DF
:1016100002D0FFF791FF04E000F042F8204600F00E
:1016200040F8257720680169C943C90708D1C16816
:10163000C943C90704D1891E0161204600F032F870
:1016400020680169C943090609D4C168C94309066C
:1016500005D46FF0800101612046FFF743FF206849
:101660000169C943490609D4C168C943490605D47B
:101670006FF040010161204600F01EF8206801690A
:10168000C94389060BD4C168C943890607D46FF0E2
:10169000200101612046BDE87040FFF724BF70BD06
:1016A0007047704700680349884201D1FFF73ABB91
:1016B00070470000000800407047704770B502682E
:1016C00004461068D168536910F00F0F51D003F031
:1016D000010501F4907635435DD0C20705D0CA05F7
:1016E00003D5E26B42F00102E263420705D5DA0757
:1016F00003D0E26B42F00202E263820705D5DA070B
:1017000003D0E26B42F00402E263020705D5DA0778
:1017100003D0E26B42F00802E263E26B002A34D0AD
:10172000800604D5880602D5204600F05DFC2068BE
:101730004069E16BC0F3801001F0080101432046CD
:1017400024D000F043FC2068416949061AD541695C
:1017500021F040014161606BA0B11B494163606BA6
:10176000FFF780F8002810D0606B416BBDE8704037
:10177000084783060FD58B060DD52046BDE870407F
:1017800000F032BC2046FFF798FF70BDFFF795FFD1
:101790000020E06370BD030606D50B0604D5204685
:1017A000BDE8704000F024BD4006F3D54806F1D5F1
:1017B000D168204621F04001D160202184F8391001
:1017C00000F053F970BD0000BD1F000870B50400A3
:1017D00004D094F83900002510B106E0012070BD56
:1017E00084F83850204600F023F8242084F839008B
:1017F0002068C16821F40051C160204600F040FC1F
:101800002068016921F4904101612068416921F05B
:101810002A0141612068C16841F40051C160E5635B
:10182000202084F8390084F83A00002070BD0000C0
:1018300030B585B0002400940194029403940068AC
:10184000194988422DD11948816941F4804181614B
:10185000816901F480410491816941F00401816151
:101860008069134D00F0040004904FF40070009064
:10187000022001900320039069462846FFF760F993
:101880002815CDE900040120029069462846FFF79B
:1018900057F9002205212520FFF7C8FA2520FFF778
:1018A000B9FA05B030BD0000003801400010024018
:1018B0000008014090F83A30202B22D1F9B1F2B162
:1018C00090F83830012B1CD081628285C2850021BE
:1018D000C163222280F83A2080F838100168CA6873
:1018E00042F48072CA6001684A6942F001024A61AA
:1018F0000068C16841F02001C160002070470120EC
:10190000704702207047000010B5006823498842E4
:1019100043D12349234800240A7822B90023C45420
:101920005B1C142BFBDB4B782E2B03D08354521CF7
:101930000A7029E084540C70017831290FD01A48BC
:10194000322910D0332910D0342910D0352910D0A5
:10195000362910D0372910D0382911D014E04FF48F
:10196000004112480EE008210CE010210AE020217D
:1019700008E0402106E0802104E04FF4807101E09E
:101980004FF40071FFF7BFF9054906480122491CD1
:10199000BDE810404430FFF78DBF10BD0038014056
:1019A000000000209C000020000C014000080140C5
:1019B0002DE9F843044690F839001F4616460D46B7
:1019C000202850D1A5B19EB194F8380001284AD002
:1019D000012084F838004FF00008C4F83C80212032
:1019E00084F83900FFF798F9A6848146E68426E05A
:1019F0000120BDE8F883E08C401EE084A0684B46DF
:101A0000B0F5805F4FF000024FF080012046009754
:101A100003D000F01EFCE8B90DE000F01AFCC8B9D4
:101A200028882168C0F308004860206908B16D1C4F
:101A300005E0AD1C03E0216815F8010B4860E08C5F
:101A40000028D8D14B46002240212046009700F0C4
:101A500000FC08B10320CCE7202084F8390084F88A
:101A600038800020C5E70220C3E77047FEE700008A
:101A700010B5094C012202212046FFF748F9012048
:101A8000FFF74CF8002202212046FFF740F9BDE89D
:101A900010400120FFF742B80008014041B1012980
:101AA00008D0022908D0D4210844C0B200F076B88A
:101AB0008021F9E7C021F7E79421F5E710B5164C2E
:101AC000002202212046FFF722F9002201212046B0
:101AD000FFF71DF91420FFF721F8302000F03EF841
:101AE000FFF7C6FFFFF7C4FFFFF7C2FF022000F0B9
:101AF00035F8FFF7BDFF282000F050F80C2000F06B
:101B00004DF8062000F04AF80220FFF707F8BDE87C
:101B10001040012000F042B80008014070B5084CA8
:101B20000546012211462046FFF7F1F8284600F04D
:101B300035F82046BDE8704000220121FFF7E7B8E4
:101B40000008014010B5044603E000BFFFF7E6FFC0
:101B5000641C20780028F9D110BD000070B50E4D2E
:101B6000044600F0010204212846FFF7D0F8C4F330
:101B7000400208212846FFF7CAF8C4F3800210216A
:101B80002846FFF7C4F8C4F3C0022846BDE87040F9
:101B90002021FFF7BCB800000008014010B5044642
:101BA0000009FFF7DBFFFFF763FF2046FFF7D6FFD3
:101BB000BDE81040FFF75CBF3EB500240D4800941F
:101BC000019402948460C460094944610160012564
:101BD00005614FF460214460C161FEF7ABFC072052
:101BE000CDE90005694602940248FEF721FC3EBD9E
:101BF00000240140B00000202DE9F04385B000240E
:101C000026480094019402940394816941F02001D4
:101C10008161816901F020010491816941F0040131
:101C20008161816901F004010491816941F0080139
:101C300081618069DFF8688000F0080048F23F05A4
:101C40000490002229464046FFF761F8DFF85490DF
:101C500040F2FA37002239464846FFF758F8009517
:101C6000022601250396CDE9015469464046FEF758
:101C700067FF44F20100CDE900046946484602943A
:101C8000FEF75EFF00970396CDE90154694648468A
:101C9000FEF756FF05B0BDE8F083000000100240DB
:101CA00000080140000C0140FEE770470907090EDB
:101CB000002806DA00F00F0000F1E02080F8141D83
:101CC000704700F1E02080F8001470472D4C0A2581
:101CD0004FF47A76012000F01FFCFEF73FFB00F086
:101CE0007DFB00F063FFA07000F060FFE07000F08B
:101CF0005DFF207100F05AFF607100210846FFF778
:101D0000CDFE21A0FFF71EFF2079B0FBF5F03030AB
:101D1000C0B2FFF703FF2079B0FBF5F105FB11001E
:101D20003030FFF7FBFE2E20FFF7F8FE60793030F1
:101D3000C0B2FFF7F3FEDF20FFF7F0FE14A0FFF7BD
:101D400001FF01210020FFF7A9FE12A0FFF7FAFE14
:101D5000A078B0FBF5F03030C0B2FFF7DFFEA0781E
:101D6000B0FBF5F105FB11003030FFF7D7FE252061
:101D7000FFF7D4FE304600F0CFFBA06900F0ECFB8B
:101D8000A8E700000000002054454D503A20000014
:101D900043000000524820203A2000000027184D40
:101DA0000A2605F120040121A86900F0FDFB28792D
:101DB000B0FBF6F130312170B0FBF6F106FB1100FB
:101DC0003030607068793030A070A878B0FBF6F1E0
:101DD0003031E170B0FBF6F106FB110030302071BC
:101DE000E878074930306071A771203105A000F014
:101DF0006BFA012000F090FBE86900F0ADFBD2E740
:101E00000000002025730000174C184D4FF4C876D1
:101E10000121E06900F0C8FB13490122891D144823
:101E2000FEF75CFC1248FEF7DFFCE088B0FBF6F042
:101E30002081092801D3002211E001212846FEF764
:101E40005DFF0028E4D02089FEF768FE0022022111
:101E50002846FEF75CFF0120FEF760FE012202210A
:101E60002846FEF754FFD3E700000020000C014095
:101E7000B000002010B5502080F31188BFF34F8FC1
:101E8000BFF36F8F01F0D6FB18B104494FF08050BB
:101E90000860002080F3118810BD000004ED00E010
:101EA00030B593B028216846FEF7A1F914210AA89D
:101EB000FEF79DF9002401200F9410941194010461
:101EC00012948DE813000490CDE9081402250795BB
:101ED0006846FFF785F90F20CDE90A056802CDE9CC
:101EE0000C4000210AA80E94FFF748F80FA80F95A0
:101EF0001194FEF7CDFF13B030BD00000D4801680E
:101F000041F00101016041680B4A114041600168E4
:101F10000A4A11400160016821F480210160416892
:101F200021F4FE0141604FF41F0181600449C003A8
:101F300008607047001002400000FFF8FFFFF6FE47
:101F400008ED00E00148FFF7F8BA00007401002036
:101F5000F0B50268164B174C174D4FF0804798426A
:101F600005D0B84203D0A04201D0A84203D122F04C
:101F700070064A683243984205D0B84203D0A04266
:101F800001D0A84203D122F44074CA68224322F04F
:101F900080044A69224302608A68C2620A688262D7
:101FA000984201D10969016301214161F0BD00003E
:101FB000002C0140000400400008004010B5406AB9
:101FC0000021C185C184FFF778FB10BD0168CA6894
:101FD00022F49072CA6001684A6922F001024A61E3
:101FE000202180F83A10704710B590F83A10222955
:101FF00001D0022010BD8168B1F5805F11D0016968
:10200000002901681FD0496801F07F03816A4A1CDA
:1020100082620B70C18D491E0904090CC18518D05C
:102020002BE00269816A002A0268526805D0D2B2A8
:102030000A80816A491C8162ECE7C2F308020A80C7
:10204000816A891CF7E74A68816A4B1C83620A70BF
:10205000E0E70168CA6822F02002CA600168CA6825
:1020600022F48072CA6001684A6922F001024A6162
:10207000202180F83A10FFF747FC002010BD000037
:102080002DE9F041044600680169E26821F44051FD
:10209000114301612169A06808436169084321680F
:1020A000CA6841F20C639A430243CA6020684169DE
:1020B000A26921F44071114341614C4920686425B3
:1020C000322688423CD1FFF745F800EBC00101EB16
:1020D000001061688900B0FBF1F7FFF73BF800EBF7
:1020E000C00101EB00106168B0468900B0FBF1F05F
:1020F000B0FBF5F06FF01801484307EB800106EBE9
:102100000110B0FBF5F000F0F006FFF723F800EB4C
:10211000C00101EB001061688900B0FBF1F0B0FB79
:10212000F5F006EB0016FFF715F800EBC00101EB28
:10213000001061688900B0FBF1F7FFF70BF83BE096
:10214000FEF7F8FF00EBC00101EB001061688900A9
:10215000B0FBF1F7FEF7EEFF00EBC00101EB001062
:102160006168B0468900B0FBF1F0B0FBF5F06FF0AC
:102170001801484307EB800106EB0110B0FBF5F0B6
:1021800000F0F006FEF7D6FF00EBC00101EB0010F7
:1021900061688900B0FBF1F0B0FBF5F006EB0016CA
:1021A000FEF7C8FF00EBC00101EB00106168890079
:1021B000B0FBF1F7FEF7BEFF00EBC00101EB001032
:1021C00061688900B0FBF1F0B0FBF5F06FF0180129
:1021D000484307EB800108EB0110B0FBF5F02168E4
:1021E00000F00F0030448860BDE8F0810038014005
:1021F00090F83910212901D0022070478168B1F58B
:10220000805F016A0BD04A1C026202680978516043
:10221000C18C491E0904090CC1840ED017E009883D
:102220000268C1F30801516001690029016A02D006
:10223000491C0162ECE7891CFBE70168CA6822F0CF
:102240008002CA600068C16841F04001C16000209E
:1022500070472DE9F041984617460E460446069D04
:102260001DE0681C1BD02DB1FEF756FDA0EB080049
:10227000A84214D92068C16821F4D071C1602068D7
:10228000416921F001014161202084F8390084F87E
:102290003A00002084F838000320BDE8F08120686F
:1022A000006836EA000004D00020B842D9D00020EF
:1022B000F3E70120F9E700000148FFF7FFB900004C
:1022C000E0000020FEE700000FB4054B10B503A9A5
:1022D000044A029800F017F810BC5DF814FB0000E7
:1022E0000D2400089800002002E008C8121F08C151
:1022F000002AFAD170477047002001E001C1121F87
:10230000002AFBD170472DE9F84F9946924688463E
:102310000546002706E025280AD051464A46904740
:102320006D1C7F1C28780028F5D13846BDE8F88F51
:10233000002315F8011F18462E2915D115F8011F85
:1023400004232A290DD06FF02F022978A1F130043F
:10235000092C09D800EB800002EB400008446D1CFA
:10236000F3E758F8040B6D1C2A78002ADDD0632AA5
:1023700007D0732A0FD0104651464A4690477F1C1B
:102380002AE018F8042B8DF8002000218DF80110A8
:102390006E46012103E058F8046B4FF0FF315A07F5
:1023A0004FF0000401D409E0641C84420BDA8C4233
:1023B000FADB325D002AF7D105E0641C8C42FCDBBD
:1023C000305D0028F9D1274404E016F8010B51468E
:1023D0004A469047641EF8D26D1CA3E770B52820CA
:1023E000FEF70EF8084D4FF4804421462846FEF7CC
:1023F00085FC10B95020FEF703F821462846FEF769
:102400007DFC0028F9D170BD000C014013B50A23F2
:10241000012269460248FFF7CBFA01201CBD0000EB
:10242000E0000020EFF30580002800D00120704775
:1024300092B0FEF77FFCFFF733FDFFF7DDFB2E4880
:10244000416941F0010141614069002200F0010051
:10245000119005210B20FEF7E9FC0B20FEF7DAFCBA
:10246000FFF7AAFB26482549002401604FF41651C6
:10247000C0E901140C21C460C0E904418461C46155
:10248000FFF7A4F901221F491D48FFF713FAFDF7D2
:1024900095FFFFF713FB01210FA80F9400F048F8F8
:1024A000184D01216D1EA86110A8109400F040F88D
:1024B000E861142214496846FDF780FE0021684651
:1024C00000F0A6F81049E8601422143105A8FDF7C1
:1024D00075FE002105A800F09BF80B492861142225
:1024E00028310AA8FDF76AFE00210AA800F090F83A
:1024F000686100F018F8FEE7001002400038014063
:10250000E000002001000020CC3800080146002037
:10251000842900D0C81C704710B500B9012000F014
:1025200073FC002010BD10B500F006FD002010BDAA
:1025300010B5012901D0002010BD03220021012087
:1025400000F09EFD040004D000231A46194600F056
:10255000B5FE204610BD000038B5002405460094A5
:10256000FFF760FF90B16946284600F057FF012849
:1025700001D0FF2038BD009888B10A494FF0805043
:102580000860BFF34F8FBFF36F8F08E000231A4638
:102590001946284600F092FE012800D0FF2420466C
:1025A00038BD000004ED00E038B505004FF0000034
:1025B00000900FD00024481C0ED001B10C46FFF74C
:1025C00031FFB8B16A460021284600F075FF0128A6
:1025D00018D104E0802038BD4FF0FF34EFE70098B9
:1025E00090B10A494FF080500860BFF34F8FBFF39E
:1025F0006F8F09E0002322461946284600F064FD4B
:10260000012801D0FF2038BD002038BD04ED00E0D6
:102610003EB504460D46B0F90800FFF777FF02A962
:10262000CDE90001208A2B4682B2D4E9001000F0E7
:10263000C7FF012801D000203EBD02983EBD00002A
:102640002DE9F041184C0F460546E6682068001D4C
:1026500000F0FAFA38B9206890F82C100120884070
:10266000216981432161681C07D137B12168BDE828
:10267000F0410E48091D00F01FBB20683544B542EB
:102680004560216805D2A06BBDE8F041091D00F04E
:10269000FBBA606B091D00F0F7FAA06A854200D210
:1026A000A562BDE8F0810000380000209002002003
:1026B0002DE9F041054600F00BFB2E4CA068401CB4
:1026C000A06020682C4F10B1606940B32DE02560F8
:1026D000A068012829D1002606EB860007EB8000C0
:1026E00000F0C4FA761C072EF6D323488C3000F095
:1026F000BDFA2148A03000F0B9FA1F48B43000F00C
:10270000B5FA1D48C83000F0B1FA1B48DC3000F0C3
:10271000ADFA19488C3060631430A06305E020687E
:10272000E96AC06A884200D82560606A401C60621D
:10273000E96A0120226988401043206101EB810091
:1027400007EB8000291D00F0B7FA00F0E1FA60699C
:1027500000280CD02068E96AC06A884207D207497D
:102760004FF080500860BFF34F8FBFF36F8FBDE80D
:10277000F081000038000020B401002004ED00E0EA
:1027800070B5114E114C17E000F00AFC3068B8B17A
:1027900001F03AF800F09CFAF068C568281D00F0D6
:1027A00053FAA068401EA0606068401E606000F0A0
:1027B000AFFA284600F055F860680028E4D170BDF3
:1027C00001F022F8F8E700007C0200203800002029
:1027D00030B4026C0B46002A0BD0C1681144C160B2
:1027E0004468A14201D30168C16030BC1846FDF7BE
:1027F000E5BC30BC70472DE9F041856B17460446B7
:102800000026026C82B1C7B1E068FDF7D7FCE16831
:10281000206C091AE1602268914202D26168081AAC
:10282000E060022F16D017E02068A8B9606800F0B9
:1028300065FF0646002060600EE0A068FDF7BEFC64
:10284000216CA0680844A0606168884204D32068B5
:10285000A06001E005B16D1E6D1CA5633046BDE8AA
:10286000F08110B50446006B00F066FA2046BDE822
:10287000104000F061BA000010484FF44061420778
:1028800006D0C01D0D4920F00700411AC1F5406176
:102890000B4A00230144C2E900030839103A21F031
:1028A000070111604B600B600B1AC0E900139360C5
:1028B0004FF000405360D06070470000A402002039
:1028C00084000020074C4FF08056074DFFF758FF5B
:1028D00020680128FAD92E60BFF34F8FBFF36F8FA6
:1028E000F4E70000B401002004ED00E02DE9F0471A
:1028F0009A46DDE9098481466FF00303206B03EB00
:1029000082021044089D20F00706700707D050206F
:1029100080F31188BFF34F8FBFF36F8FFEE723184B
:102920000A5C83F834200A5C12B1401C1028F6D3EC
:10293000002784F84370072D00D30625E562C4E91B
:102940001157201D00F09DF904F1180000F099F9CD
:102950002461C5F107006462A061E76484F85070E7
:1029600052464946304600F00FF92060B8F1000F9A
:1029700001D0C8F80040BDE8F087000030B511492B
:1029800000E011460A688242FBD34B685C1884421F
:1029900003D1406818444860084643681C189442B4
:1029A00009D1084C103C2468A24209D052681A444C
:1029B00042600A6812680260814200D0086030BD3F
:1029C0000460F9E78400002010B5044600F080F9A7
:1029D000A06B28B15FF0000400F09AF9204610BD0A
:1029E0000124F9E70648416B096829B1416BC968C0
:1029F000C9684968816270474FF0FF31FAE700000B
:102A00003800002008484068401C4FF0500080F318
:102A1000118804D0BFF34F8FBFF36F8FFEE7BFF372
:102A20004F8FBFF36F8FFEE78C0000202DE9F04140
:102A3000044600F04DF994F9455004F1240609E0EC
:102A4000606A48B1304600F0A5FE08B100F002FA15
:102A50006D1E6DB2002DF3DC4FF0FF3684F845603B
:102A600000F056F900F034F994F9445004F11007DD
:102A700009E0206948B1384600F08CFE08B100F04A
:102A8000E9F96D1E6DB2002DF3DC84F84460BDE8F9
:102A9000F04100F03DB900002DE9F0410546002766
:102AA00000F07EFA314E306808B9FFF7E5FEF068B5
:102AB00005424BD1C5B3083568070ED005F00700B5
:102AC000C0F108000544680707D0502080F3118842
:102AD000BFF34F8FBFF36F8FFEE72DB37068854252
:102AE00034D82248103001460C6801E020460C46DC
:102AF0006168A94202D221680029F7D131688C426D
:102B000024D007682168016060680837411B1029DC
:102B10000FD96019420708D0502080F31188BFF305
:102B20004F8FBFF36F8FFEE710E041606560FFF7E6
:102B300025FF61687068401A7060B268904200D2E8
:102B4000B060F06801430020C4E9000100F05CFEC1
:102B5000780707D0502080F31188BFF34F8FBFF361
:102B60006F8FFEE73846BDE8F0810000740000205A
:102B70000449086818B10868826C521C82640868AD
:102B8000704700003800002010B5031F4FF080741C
:102B90001C601B1F21F001011960191F024B0B6003
:102BA000143940380A6010BD052A00082DE9F041AB
:102BB000144E00244FF001084FF480473946304648
:102BC000FEF79CF80028F9D02820FDF719FC3946BB
:102BD0003046FEF793F80028C4F1070108FA01F027
:102BE0000ED02843C5B239463046FEF787F8002894
:102BF000F9D1641CE4B2082CE0D32846BDE8F0818A
:102C00008543F0E7000C014005484FF48041016026
:102C100000214160816001460248FDF791BF00003C
:102C200020010020000C014005484FF48041016064
:102C3000012141600221C16001460248FDF780BFC9
:102C400020010020000C0140D0E9013201699A60A6
:102C5000D0E901235A604A68824201D182684A6001
:102C6000002202610868401E0860704700F10801F8
:102C70004FF0FF32C0E90112C16001610021016023
:102C8000704700210161704730B50B685A1C02D0B3
:102C900000F1080202E0026904E022465468256857
:102CA0009D42FAD953684B6099608A60516008610F
:102CB0000168491C016030BD42684A6093688B60BE
:102CC00093685960916008610168491C0160704710
:102CD000502080F31188BFF34F8FBFF36F8F0A49E5
:102CE0004868401C486001280CD10848006810F072
:102CF000FF0F07D0502080F31188BFF34F8FBFF331
:102D00006F8FFEE7704700008C00002004ED00E0AC
:102D10000849486828B1401E486001D180F31188F5
:102D20007047502080F31188BFF34F8FBFF36F8F30
:102D3000FEE700008C00002070B5002827D0144D5D
:102D4000A0F108046168E868014207D1502080F3CF
:102D50001188BFF34F8FBFF36F8FFEE722683AB140
:102D6000502080F31188BFF34F8FBFF36F8FFEE7C2
:102D70008143616000F014F9606869680844686024
:102D80002046FFF7FBFDBDE8704000F03DBD70BD83
:102D90007400002006484FF47A710068B0FBF1F12E
:102DA0004FF0E020491E416107210161704700009A
:102DB0003400002010B5FDF7EBF9114910280ED3AF
:102DC00000F1E02090F8F0030A78904207D25020FA
:102DD00080F31188BFF34F8FBFF36F8FFEE7094871
:102DE0000068896800F4E060884207D9502080F3C9
:102DF0001188BFF34F8FBFF36F8FFEE710BD000048
:102E00008C0000200CED00E010B5020014D00F483B
:102E1000006B38B1502080F31188BFF34F8FBFF3A0
:102E20006F8FFEE700F0BCF800211046FFF708FCAA
:102E300000F0EAFC002807D105494FF080500860F7
:102E4000BFF34F8FBFF36F8F10BD0000380000201D
:102E500004ED00E001490120C861704738000020FE
:102E600010B50C4650B1094909681831FFF70CFF3D
:102E70002046BDE810400121FFF7E2BB502080F35F
:102E80001188BFF34F8FBFF36F8FFEE7380000202C
:102E900070B5040039D01D4DE06A2968C96A8842BE
:102EA00033D2A069002804DB2868C06AC0F107009B
:102EB000A061E16A164E01EB8101606906EB8101B8
:102EC00088421FD1201DFFF7BFFE012150B9E06AE3
:102ED00000EB800256F8222022B92A6901FA00F09C
:102EE00082432A612868C06AE0622A6981401143EE
:102EF000296100EB800006EB8000211DBDE87040D9
:102F0000FFF7DABE2868C06AE06270BD38000020B2
:102F1000B401002028B107490A6A0260C96841600B
:102F20007047502080F31188BFF34F8FBFF36F8F2E
:102F3000FEE70000380000201CB515480024CDE94C
:102F400000402346802213A1144800F039FB0128D9
:102F500009D0401C1AD1502080F31188BFF34F8F45
:102F6000BFF36F8FFEE7502080F31188BFF34F8FC0
:102F7000BFF36F8F06484FF0FF312C38816201217B
:102F80004161C460BDE81C4000F040B81CBD0000B9
:102F90006400002049444C4500000000C52800089A
:102FA0000248016B491C0163704700003800002093
:102FB0001448016B11B10121C16170470021C16149
:102FC0000169B1FA81F1C1F11F0101EB81020E49E2
:102FD00051F822306BB101EB820101F108034A681C
:102FE00052684A609A4201D152684A60D1680160D1
:102FF0007047502080F31188BFF34F8FBFF36F8F5E
:10300000FEE7000038000020B40100201CB519497B
:1030100008780190FF20087008788DF800009DF86E
:103020000000154A00F0500010700720906005E085
:103030009DF800305B008DF80030401E9DF8003098
:103040001B06F5D4000200F4E0609060019808705F
:103050000A48016841F470010160016841F0704163
:103060000160FFF797FE00205060FDF75BF800203D
:103070001CBD000000E400E08C00002020ED00E01A
:1030800070B50E46050013D0D6B105FB06F04830EA
:10309000FFF702FD040009D004F1480120468EB17B
:1030A0000160C0E90F56012100F0C4F8204670BD50
:1030B000502080F31188BFF34F8FBFF36F8FFEE76F
:1030C0000020E4E70060ECE72DE9FF4F002683B025
:1030D0009B468A46040003D0BAF1000F08D011E0E5
:1030E000502080F31188BFF34F8FBFF36F8FFEE73F
:1030F000206C38B1502080F31188BFF34F8FBFF39D
:103100006F8FFEE700F088FADFF824814FF00009A6
:103110004FF0805748B9059838B1502080F3118896
:10312000BFF34F8FBFF36F8FFEE7FFF7D1FDA56BA6
:1031300045B351462046E668FFF74AFBBBF1000F56
:1031400013D0E660606A50B104F1240000F022FB65
:1031500028B1C8F80070BFF34F8FBFF36F8FFFF730
:10316000D7FD012007B0BDE8F08F6D1EA563206874
:1031700010B9FFF7FDFC606020690028EFD004F172
:103180001000E3E7059808B11EB106E0FFF7C0FDA7
:1031900027E06846FFF7BEFE0126FFF7B9FDFFF7FF
:1031A000FFFEFFF795FD94F94400401C01D184F81F
:1031B000449094F94500401C01D184F84590FFF7F4
:1031C000A7FD05A9684600F0C5F9002820460AD0E9
:1031D000FFF72CFC00F018FB2046FFF7F5FB00285A
:1031E000A3D00020BEE7FFF7EFFBD8B1206830B9CD
:1031F000FFF76EFD6068FFF74BFEFFF789FD04F1F6
:1032000024000599FFF72CFE2046FFF70FFC00F085
:10321000FBFA002889D1C8F80070BFF34F8FBFF3C5
:103220006F8F82E72046FFF701FC00F0EDFA7CE7A4
:1032300004ED00E070B50D46040025D0FFF748FD11
:10324000D4E90F20216802FB001161600021A16315
:103250002168A1600A46D4E90F01401E00FB01214C
:10326000E16021464FF0FF3001F8440F487004F14F
:1032700010008DB1FFF7FAFC04F12400FFF7F6FC13
:10328000FFF746FD012070BD502080F31188BFF389
:103290004F8FBFF36F8FFEE721690029F0D000F058
:1032A00079FA0028ECD004494FF080500860BFF351
:1032B0004F8FBFF36F8FE3E704ED00E02DE9FF4789
:1032C00082B01D468A464FF00008040003D0BAF1D0
:1032D000000F08D011E0502080F31188BFF34F8F0A
:1032E000BFF36F8FFEE7206C38B1502080F3118858
:1032F000BFF34F8FBFF36F8FFEE7022D0AD1E06B54
:10330000012807D0502080F31188BFF34F8FBFF3FF
:103310006F8FFEE700F080F93F4F4FF000094FF04C
:10332000805648B9049838B1502080F31188BFF313
:103330004F8FBFF36F8FFEE7FFF7CAFCA06BE16B07
:10334000884207D3022D05D00498D0B1B8F1000F00
:103350001AD01EE02A4651462046FFF74CFA616A11
:1033600019B104F1240000F015FA20B13E60BFF35A
:103370004F8FBFF36F8FFFF7CBFC012006B0BDE886
:10338000F087FFF7C5FC22E06846FFF7C3FD4FF06A
:103390000108FFF7BDFCFFF703FEFFF799FC94F966
:1033A0004400401C01D184F8449094F94500401C2D
:1033B00001D184F84590FFF7ABFC04A9684600F002
:1033C000C9F830B12046FFF731FB00F01DFA0020AC
:1033D000D4E7FFF77DFCA06BE16B884213D1FFF7C8
:1033E00097FC04F110000499FFF73AFD2046FFF71F
:1033F0001DFB00F009FA00289ED13E60BFF34F8FFD
:10340000BFF36F8F98E7FFF783FC2046FFF70EFBB3
:1034100000F0FAF990E7000004ED00E070B50E4608
:10342000040009D0206C78B1502080F31188BFF3DC
:103430004F8FBFF36F8FFEE7502080F31188BFF3EB
:103440004F8FBFF36F8FFEE7206848B9606838B1CF
:10345000502080F31188BFF34F8FBFF36F8FFEE7CB
:10346000FFF7A8FC5020EFF3118580F31188BFF31C
:103470004F8FBFF36F8FA16BE06B884218D994F91F
:103480004500491CA163411C04D0401C84F8450040
:1034900001200EE0606A0028FAD004F1240000F058
:1034A00079F90028F4D0002EF2D001203060EFE747
:1034B000002085F3118870BD2DE9F04790468946BC
:1034C000040003D0B9F1000F08D011E0502080F3C0
:1034D0001188BFF34F8FBFF36F8FFEE7206C38B1B9
:1034E000502080F31188BFF34F8FBFF36F8FFEE73B
:1034F000FFF760FC5020EFF3118680F31188BFF3D3
:103500004F8FBFF36F8FA76BF7B194F944504946C3
:103510002046FFF75DF97F1EA763681C04D06D1C71
:1035200084F84450012010E020690028FAD004F10A
:10353000100000F02FF90028F4D0B8F1000FF1D0FE
:103540000121C8F80010EDE7002086F31188BDE8DE
:10355000F087000070B50D46040019D005B3FFF7E1
:10356000B7FB164AD1682868431C0FD02368126A3B
:10357000934202D062688A421AD96268891A8142EB
:1035800016D2401A28602046FFF7C4FC002410E041
:10359000502080F31188BFF34F8FBFF36F8FFEE78A
:1035A000502080F31188BFF34F8FBFF36F8FFEE77A
:1035B0000124FFF7ADFB204670BD0000380000205D
:1035C0002DE9FF5F8346DDE90E87994616468A4658
:1035D0009000FFF761FA05001AD05420FFF75CFA5B
:1035E000040012D025630021CDE90241CDE9008716
:1035F0004B46324651465846FFF778F92046FFF7CA
:1036000057F8012004B0BDE8F09F2846FFF794FB6F
:103610004FF0FF30F6E700000548416919B1006B33
:1036200018B1002070470120704702207047000049
:10363000380000202DE9F0412E4C0027206B40B1CE
:10364000A069401CA061E06900B101273846BDE8CF
:10365000F081E668761CE66013D1606B006838B1D3
:10366000502080F31188BFF34F8FBFF36F8FFEE7B9
:10367000606BA16B6163A063206A401C2062FFF74E
:10368000B1F9A06ADFF87080864209D3606B0068E8
:1036900080B1606BC068C568686886420DD2A06260
:1036A0002068C06A00EB800158F821000128CAD9BF
:1036B0000127C8E74FF0FF30F1E7281DFFF7C4FAF4
:1036C000A86A18B105F11800FFF7BEFAE86A0121EF
:1036D000226981401143216100EB800108EB8100E8
:1036E000291DFFF7E9FAE86A2168C96A8842CDD343
:1036F0000127CBE738000020B401002070B504009A
:103700004FF0000140D0214D2868844207D050205E
:1037100080F31188BFF34F8FBFF36F8FFEE7A06C6C
:1037200038B1401EA064636CE26A9A422CD040B16A
:103730002AE0502080F31188BFF34F8FBFF36F8FC3
:10374000FEE7201DFFF780FA114A012150B9E06A17
:1037500000EB800352F8233023B92B6901FA00F003
:1037600083432B61606CE062C0F10700A061E06AF6
:103770002B6981401943296100EB800002EB800036
:10378000211DFFF799FA0121084670BD380000207D
:10379000B40100202DE9F041C068C468ACB104F167
:1037A00018000746FFF750FA154D286B0126A0B107
:1037B00039461448FFF780FAE06A2968C96A8842E6
:1037C0001CD90120EE61BDE8F081502080F3118802
:1037D000BFF34F8FBFF36F8FFEE7201DFFF734FA63
:1037E000E16A2A6906FA01F01043286101EB8100C1
:1037F0000449B43901EB8000211DDBE70020E2E73A
:1038000038000020680200202DE9F0472C4D0024EC
:103810002746286B38B1FFF75BFA286B401E2863F8
:10382000286B40B146E0502080F31188BFF34F8FE2
:10383000BFF36F8FFEE7A968224E0120D1B3A6F136
:10384000B40980463068E8B1F068C46804F1180033
:10385000FFF7FAF9201DFFF7F7F9E06A2A6908FA7D
:1038600000F11143296100EB800109EB8100211D6A
:10387000FFF722FAE06A2968C96A8842E2D3C5F8EC
:103880001C80DFE70CB1FFF7ADF8AC6944B14646E8
:10389000FFF7D0FE00B1EE61641EF9D10020A861EF
:1038A000E86938B10849012738070860BFF34F8F2E
:1038B000BFF36F8FFFF72CFA3846BDE8F0870000A2
:1038C000380000206802002004ED00E020390008E4
:1038D000CD1C000800000000000000008000000077
:1038E0002C3900089D1D00080000000000000000A9
:1038F0008000000038390008091E000800000000A0
:103900000000000080000000000000000000000037
:103910000102030406070809000000000102030475
:103920006D795461736B3031000000006D79546122
:10393000736B3032000000006D795461736B30336B
:103940000000000064390008000000209C00000016
:10395000E8220008003A00089C0000200C12000039
:10396000F822000800000000000000000000000035
:103970000000000000000000000000000000000047
:103980000000000000000000000000000100000036
:10399000100000000000000000A24A040000000027
:1039A0000000000000000000000000000000000017
:1039B0000000000000000000000000000000000007
:1039C00000000000000000000000000000000000F7
:1039D00000000000000000000000000000000000E7
:1039E00000000000000000000000000000000000D7
:1039F00000000000AAAAAAAA00000000000000001F
:04000005080000ED02
:00000001FF
